:03000000020B5F91
:0C0B5F00787FE4F6D8FD758170020A2250
:1008000053657869737420436F6D6D656E74000075
:1008100000000000000000000000000000000000D8
:1008200000000000000000000000000000000000C8
:1008300000000000000000000000000000000000B8
:1008400000000000000000000000000000000000A8
:100850000000000000000000000000000000000098
:10086000000000005361666520436F6D6D656E7416
:100870007300000000000000000000000000000005
:100880000000000000000000000000000000000068
:100890000000000000000000000000000000000058
:1008A0000000000000000000000000000000000048
:1008B0000000000000000000000000000000000038
:1008C0000000000000000000436F6D6D656E742035
:1008D00044656C6574656400000000000000000061
:1008E0000000000000000000000000000000000008
:1008F00000000000000000000000000000000000F8
:1009000000000000000000000000000000000000E7
:1009100000000000000000000000000000000000D7
:0C092000000000000000000000000000CB
:070B1400120B3B7F0A7E007B
:100B1B00E4FDFCC3ED9FEC9E5015E4FBFA0BBB0010
:0F0B2B00010ABA04F8BBFBF50DBD00010C80E414
:010B3A002298
:100B3B008FA0C2B2C2B3D2B47F017E00120B1BC214
:020B4B00B422D2
:100B4D008FA0D2B2C2B3D2B47F017E00120B1BC2F2
:020B5D00B422C0
:100AE700780B7C00FD7BFFFE7F641209FCE4F56F49
:020AF700F57098
:100AF9007F38120B147F0F120B147F01120B147F16
:0B0B090081120B3B7F0A7E00020B1BD9
:100A2200750800750901759850758920758DFDD27C
:100A32008E3098FD85990A850A993099FDC299C22E
:100A420098E50AB43002D290E50AB43102C290E5C8
:100A52000AB43202D291E50AB43302C291E50AB471
:100A62003402D292E50AB43502C292E50AB43602E1
:100A7200D293E50AB43702C293E50A64387036E5C8
:070A8200096401450870261C
:100A89007A087900120AE7740B2570F8E6FF6014FA
:100A9900120B4D0570E5707002056F7F327E0012F2
:060AA9000B1B80E3C28775
:080AAF007508007509008000C4
:090AB700E50A64396003020A3308
:100AC0007A0879C8120AE7740B2570F8E6FF7003FC
:100AD000020A33120B4D0570E5707002056F7F320C
:070AE0007E00120B1B80E0F9
:10092C00E709F608DFFA8046E709F208DFFA803EAD
:10093C0088828C83E709F0A3DFFA8032E309F6089A
:10094C00DFFA8078E309F208DFFA807088828C8302
:10095C00E309F0A3DFFA806489828A83E0A3F608B6
:10096C00DFFA805889828A83E0A3F208DFFA804C90
:10097C0080D280FA80C680D4806980F28033801067
:10098C0080A680EA809A80A880DA80E280CA8033D0
:10099C0089828A83ECFAE493A3C8C582C8CCC58348
:1009AC00CCF0A3C8C582C8CCC583CCDFE9DEE78018
:1009BC000D89828A83E493A3F608DFF9ECFAA9F097
:1009CC00EDFB2289828A83ECFAE0A3C8C582C8CCED
:1009DC00C583CCF0A3C8C582C8CCC583CCDFEADE06
:1009EC00E880DB89828A83E493A3F208DFF980CC68
:1009FC0088F0EF60010E4E60C388F0ED2402B40461
:100A0C000050B9F582EB2402B4040050AF23234507
:060A1C00822390097C73A7
:00000001FF
